:03000000020006F5
:03005F0002000399
:030003000200A157
:2000620085820885830985F00AF50B902EE0E4F5F01200C1AC82AD83AEF0FF780079007A3F
:20008200007B00C3E89CE99DEA9EEB9F50100008B8000909B900050ABA00E80B80E5227561
:1F00A20092007593FF75900090000AE4F5F01200627590FF90000AE4F5F012006280E689
:06003500E478FFF6D8FD9F
:200013007900E94400601B7A00900133780175A000E493F2A308B8000205A0D9F4DAF2755F
:02003300A0FF2C
:2000C100AAF0FBE5828508F0A4FCADF0E5838508F0A42DFDE435F0FEE5828509F0A42DFDFC
:2000E100E5F03EFEE433FFEA8508F0A42EFEE5F03FFFE5838509F0A42EFEE5F03FFFE5825E
:20010100850AF0A42EFEE5F03FFFEB8508F0A42FFFEA8509F0A42FFFE583850AF0A42FFF4F
:0E012100E582850BF0A42F8EF08D838C822258
:20003B007800E84400600A790175A000E4F309D8FC7800E84400600C7900900001E4F0A3C3
:04005B00D8FCD9FAFA
:0D00060075810B12012FE5826003020003DB
:04012F0075820022B3
:00000001FF
